{
  "_format": "hh-sol-artifact-1",
  "contractName": "Nft",
  "sourceName": "contracts/Nft.sol",
  "abi": [
    {
      "inputs": [],
      "stateMutability": "nonpayable",
      "type": "constructor"
    },
    {
      "anonymous": false,
      "inputs": [
        {
          "indexed": false,
          "internalType": "uint64",
          "name": "id",
          "type": "uint64"
        }
      ],
      "name": "TokenCreated",
      "type": "event"
    },
    {
      "anonymous": false,
      "inputs": [
        {
          "indexed": false,
          "internalType": "uint64",
          "name": "id",
          "type": "uint64"
        }
      ],
      "name": "TokenDeleted",
      "type": "event"
    },
    {
      "inputs": [
        {
          "internalType": "string",
          "name": "name",
          "type": "string"
        },
        {
          "internalType": "bytes",
          "name": "data",
          "type": "bytes"
        }
      ],
      "name": "createToken",
      "outputs": [],
      "stateMutability": "nonpayable",
      "type": "function"
    },
    {
      "inputs": [
        {
          "internalType": "uint64",
          "name": "id",
          "type": "uint64"
        }
      ],
      "name": "deleteToken",
      "outputs": [],
      "stateMutability": "nonpayable",
      "type": "function"
    },
    {
      "inputs": [
        {
          "internalType": "uint64",
          "name": "",
          "type": "uint64"
        }
      ],
      "name": "tokens",
      "outputs": [
        {
          "internalType": "uint64",
          "name": "id",
          "type": "uint64"
        },
        {
          "internalType": "address",
          "name": "creator",
          "type": "address"
        },
        {
          "internalType": "address",
          "name": "owner",
          "type": "address"
        },
        {
          "internalType": "string",
          "name": "name",
          "type": "string"
        },
        {
          "internalType": "bytes",
          "name": "data",
          "type": "bytes"
        }
      ],
      "stateMutability": "view",
      "type": "function"
    }
  ],
  "bytecode": "0x60806040526000600160006101000a81548167ffffffffffffffff021916908367ffffffffffffffff16021790555034801561003a57600080fd5b506110638061004a6000396000f3fe608060405234801561001057600080fd5b50600436106100415760003560e01c80632f7fc1cd1461004657806381d16b5114610062578063a8f3fdb81461007e575b600080fd5b610060600480360381019061005b91906108a2565b6100b2565b005b61007c6004803603810190610077919061095a565b6102cd565b005b6100986004803603810190610093919061095a565b610470565b6040516100a9959493929190610aab565b60405180910390f35b60006040518060a00160405280600160009054906101000a900467ffffffffffffffff1667ffffffffffffffff1681526020013373ffffffffffffffffffffffffffffffffffffffff1681526020013373ffffffffffffffffffffffffffffffffffffffff1681526020018481526020018381525090506001600081819054906101000a900467ffffffffffffffff168092919061014f90610b3b565b91906101000a81548167ffffffffffffffff021916908367ffffffffffffffff1602179055505080600080836000015167ffffffffffffffff1667ffffffffffffffff16815260200190815260200160002060008201518160000160006101000a81548167ffffffffffffffff021916908367ffffffffffffffff16021790555060208201518160000160086101000a81548173ffffffffffffffffffffffffffffffffffffffff021916908373ffffffffffffffffffffffffffffffffffffffff16021790555060408201518160010160006101000a81548173ffffffffffffffffffffffffffffffffffffffff021916908373ffffffffffffffffffffffffffffffffffffffff16021790555060608201518160020190816102739190610d81565b5060808201518160030190816102899190610eae565b509050507fa9d419ddb325894f9765099e36682013cc28c23e19b78b70f51cf9637133c2e481600001516040516102c09190610f80565b60405180910390a1505050565b3373ffffffffffffffffffffffffffffffffffffffff166000808367ffffffffffffffff1667ffffffffffffffff16815260200190815260200160002060010160009054906101000a900473ffffffffffffffffffffffffffffffffffffffff1673ffffffffffffffffffffffffffffffffffffffff1614610384576040517f08c379a000000000000000000000000000000000000000000000000000000000815260040161037b9061100d565b60405180910390fd5b6000808267ffffffffffffffff1667ffffffffffffffff168152602001908152602001600020600080820160006101000a81549067ffffffffffffffff02191690556000820160086101000a81549073ffffffffffffffffffffffffffffffffffffffff02191690556001820160006101000a81549073ffffffffffffffffffffffffffffffffffffffff0219169055600282016000610424919061060a565b600382016000610434919061064a565b50507ffede90ec1e80a5117376b28d53b8615da2f4bf3b1ce2c446b669dc3ff48ca796816040516104659190610f80565b60405180910390a150565b60006020528060005260406000206000915090508060000160009054906101000a900467ffffffffffffffff16908060000160089054906101000a900473ffffffffffffffffffffffffffffffffffffffff16908060010160009054906101000a900473ffffffffffffffffffffffffffffffffffffffff16908060020180546104f990610b9a565b80601f016020809104026020016040519081016040528092919081815260200182805461052590610b9a565b80156105725780601f1061054757610100808354040283529160200191610572565b820191906000526020600020905b81548152906001019060200180831161055557829003601f168201915b50505050509080600301805461058790610b9a565b80601f01602080910402602001604051908101604052809291908181526020018280546105b390610b9a565b80156106005780601f106105d557610100808354040283529160200191610600565b820191906000526020600020905b8154815290600101906020018083116105e357829003601f168201915b5050505050905085565b50805461061690610b9a565b6000825580601f106106285750610647565b601f016020900490600052602060002090810190610646919061068a565b5b50565b50805461065690610b9a565b6000825580601f106106685750610687565b601f016020900490600052602060002090810190610686919061068a565b5b50565b5b808211156106a357600081600090555060010161068b565b5090565b6000604051905090565b600080fd5b600080fd5b600080fd5b600080fd5b6000601f19601f8301169050919050565b7f4e487b7100000000000000000000000000000000000000000000000000000000600052604160045260246000fd5b61070e826106c5565b810181811067ffffffffffffffff8211171561072d5761072c6106d6565b5b80604052505050565b60006107406106a7565b905061074c8282610705565b919050565b600067ffffffffffffffff82111561076c5761076b6106d6565b5b610775826106c5565b9050602081019050919050565b82818337600083830152505050565b60006107a461079f84610751565b610736565b9050828152602081018484840111156107c0576107bf6106c0565b5b6107cb848285610782565b509392505050565b600082601f8301126107e8576107e76106bb565b5b81356107f8848260208601610791565b91505092915050565b600067ffffffffffffffff82111561081c5761081b6106d6565b5b610825826106c5565b9050602081019050919050565b600061084561084084610801565b610736565b905082815260208101848484011115610861576108606106c0565b5b61086c848285610782565b509392505050565b600082601f830112610889576108886106bb565b5b8135610899848260208601610832565b91505092915050565b600080604083850312156108b9576108b86106b1565b5b600083013567ffffffffffffffff8111156108d7576108d66106b6565b5b6108e3858286016107d3565b925050602083013567ffffffffffffffff811115610904576109036106b6565b5b61091085828601610874565b9150509250929050565b600067ffffffffffffffff82169050919050565b6109378161091a565b811461094257600080fd5b50565b6000813590506109548161092e565b92915050565b6000602082840312156109705761096f6106b1565b5b600061097e84828501610945565b91505092915050565b6109908161091a565b82525050565b600073ffffffffffffffffffffffffffffffffffffffff82169050919050565b60006109c182610996565b9050919050565b6109d1816109b6565b82525050565b600081519050919050565b600082825260208201905092915050565b60005b83811015610a115780820151818401526020810190506109f6565b60008484015250505050565b6000610a28826109d7565b610a3281856109e2565b9350610a428185602086016109f3565b610a4b816106c5565b840191505092915050565b600081519050919050565b600082825260208201905092915050565b6000610a7d82610a56565b610a878185610a61565b9350610a978185602086016109f3565b610aa0816106c5565b840191505092915050565b600060a082019050610ac06000830188610987565b610acd60208301876109c8565b610ada60408301866109c8565b8181036060830152610aec8185610a1d565b90508181036080830152610b008184610a72565b90509695505050505050565b7f4e487b7100000000000000000000000000000000000000000000000000000000600052601160045260246000fd5b6000610b468261091a565b915067ffffffffffffffff8203610b6057610b5f610b0c565b5b600182019050919050565b7f4e487b7100000000000000000000000000000000000000000000000000000000600052602260045260246000fd5b60006002820490506001821680610bb257607f821691505b602082108103610bc557610bc4610b6b565b5b50919050565b60008190508160005260206000209050919050565b60006020601f8301049050919050565b600082821b905092915050565b600060088302610c2d7fffffffffffffffffffffffffffffffffffffffffffffffffffffffffffffffff82610bf0565b610c378683610bf0565b95508019841693508086168417925050509392505050565b6000819050919050565b6000819050919050565b6000610c7e610c79610c7484610c4f565b610c59565b610c4f565b9050919050565b6000819050919050565b610c9883610c63565b610cac610ca482610c85565b848454610bfd565b825550505050565b600090565b610cc1610cb4565b610ccc818484610c8f565b505050565b5b81811015610cf057610ce5600082610cb9565b600181019050610cd2565b5050565b601f821115610d3557610d0681610bcb565b610d0f84610be0565b81016020851015610d1e578190505b610d32610d2a85610be0565b830182610cd1565b50505b505050565b600082821c905092915050565b6000610d5860001984600802610d3a565b1980831691505092915050565b6000610d718383610d47565b9150826002028217905092915050565b610d8a826109d7565b67ffffffffffffffff811115610da357610da26106d6565b5b610dad8254610b9a565b610db8828285610cf4565b600060209050601f831160018114610deb5760008415610dd9578287015190505b610de38582610d65565b865550610e4b565b601f198416610df986610bcb565b60005b82811015610e2157848901518255600182019150602085019450602081019050610dfc565b86831015610e3e5784890151610e3a601f891682610d47565b8355505b6001600288020188555050505b505050505050565b60008190508160005260206000209050919050565b601f821115610ea957610e7a81610e53565b610e8384610be0565b81016020851015610e92578190505b610ea6610e9e85610be0565b830182610cd1565b50505b505050565b610eb782610a56565b67ffffffffffffffff811115610ed057610ecf6106d6565b5b610eda8254610b9a565b610ee5828285610e68565b600060209050601f831160018114610f185760008415610f06578287015190505b610f108582610d65565b865550610f78565b601f198416610f2686610e53565b60005b82811015610f4e57848901518255600182019150602085019450602081019050610f29565b86831015610f6b5784890151610f67601f891682610d47565b8355505b6001600288020188555050505b505050505050565b6000602082019050610f956000830184610987565b92915050565b7f746f6b656e2063616e2062652064656c65746564206f6e6c792062792069747360008201527f206f776e65720000000000000000000000000000000000000000000000000000602082015250565b6000610ff76026836109e2565b915061100282610f9b565b604082019050919050565b6000602082019050818103600083015261102681610fea565b905091905056fea26469706673582212203c71e362d9f15fe63dbb54e819ec17c92ed4214c7841ca49a24f229f33da95df64736f6c63430008110033",
  "linkReferences": {},
  "deployedLinkReferences": {}
}